:100000001200050103120066120056900012120041
:10001000332220202020202020707265726E612003
:1000200020202A2A2A2A2A2A2A2A2A2A2A2A2A2A44
:100030002A2A03753300C0E0740093B4030302005E
:10004000531200CCA30533E533B410EC74A81200AE
:10005000A80138D0E022C0E012010174011200A80A
:10006000120111D0E02212011112011112011174BA
:10007000301200C112011174301200C1120111744A
:10008000301200C112011174201200C17428120034
:10009000A874141200A8740E1200A874061200A806
:1000A00074011200A8C28022C0E01201011200E512
:1000B000C281C2821200F6C41200E51200F6D0E03E
:1000C000221200E5C281C2821200F622C0E01201B3
:1000D000011200E5D281C2821200F6C41200E512BC
:1000E00000F6D0E022A2E49284A2E59285A2E692F4
:1000F00086A2E792872200D28300000000C283001C
:1001000022D287C281D28200D28300A28700C2831A
:10011000227530027531647532FAD532FDD531F76A
:04012000D532F122C1
:00000001FF
