:03000000020800F3
:0C080000787FE4F6D8FD758120020847DF
:10091400110E30313233343536373839414243449D
:0309240045460045
:10088C00120937D2A2C2A3C2A1C200C2A7C2A6C279
:10089C00A500D2A300D2A100C2A3C2A130A205120E
:1008AC00094380F820A20512094380F800D2000009
:1008BC00AF80750C008F0DC200E50D54F0FFE4C441
:1008CC00F854F0C8EFC4540F48120928E50D540F22
:1008DC001209287FE87E031208F475F00D12092E18
:0808EC0075F00A12092E80A329
:07094300D2A40000C2A422AF
:0C093700438920758DFDD28E75985222E8
:06092800240EF8E6F5F0D4
:09092E0085F0993099FDC299226F
:1008F400E4FDFCC3ED9FEC9E5015E4FBFA0BBB003A
:0F090400010AEB64784A70F50DBD00010C80E428
:0109130022C1
:10080C0002088CE493A3F8E493A34003F68001F26E
:10081C0008DFF48029E493A3F85407240CC8C333ED
:10082C00C4540F4420C8834004F456800146F6DFBC
:10083C00E4800B0102040810204080900914E47E2F
:10084C00019360BCA3FF543F30E509541FFEE493B1
:10085C00A360010ECF54C025E060A840B8E493A378
:10086C00FAE493A3F8E493A3C8C582C8CAC583CAA3
:10087C00F0A3C8C582C8CAC583CADFE9DEE780BE5B
:0109270000CF
:00000001FF
