:1000000012002F12008690000D1200FF22202020E7
:10001000202020202070726F6C69666963202D2D6E
:100020002D2D2D2D2D2D2D2D2D2D2D2D2D2D031245
:100030000120120120120120743012007B120120D5
:10004000743012007B120120743012007B120120E8
:10005000742012007B7428120096740812009674A3
:100060000C1200967405120096740E120096741805
:100070001200967401120096C280221200EEC28114
:10008000C2821200E322C0E01200CD740112009679
:10009000120120D0E022C0E01200CD1200EEC28199
:1000A000C2821200E3C41200EE1200E3D0E022C0CC
:1000B000E01200CD1200EED281C2821200E3C4121F
:1000C00000EE1200E3D0E022243011AF22D287C22A
:1000D00081D28200D28300A28700C283001200E393
:1000E00040EB2200D28300000000C2830022A2E481
:1000F0009284A2E59285A2E69286A2E79287227573
:100100003000C0E0740093B4030302011D11AFA3DB
:100110000530E530B410ED74A811962104D0E0222A
:090120007A157BFFDBFEDAFA22FE
:00000001FF
