:10000000758920758DFDD28ED29C75985212006232
:100010007F1074281200A11200F9740012005A1205
:100020000052E5991200E51200F9DFEE74C01200EB
:10003000A11200F97F10740012005A120052E599C3
:100040001200E51200F9DFEE74011200A11200F9AE
:1000500001103099FDF599C299223098FDE599C2B9
:1000600098221200F91200F91200F91200F9C28068
:1000700074281200A11200F974141200A11200F9E0
:10008000740C1200A11200F974061200A11200F9FA
:1000900074011200A11200F974021200A11200F9F9
:1000A000221200C3C0E0C281C2821200D41200BA80
:1000B000D0E0C41200D41200BA22D28300000000A3
:1000C000C28322D287C281D282D28300A28700C299
:1000D0008340F022A2E49284A2E59285A2E6928671
:1000E000A2E792872211C3D281C282C0E011D4114B
:1000F000BAD0E0C411D411BA2279647A17DAFED9E1
:0F010000FA2279057AFF7BFFDBFEDAFAD9F622C5
:00000001FF
