:030000000208866D
:0C088600787FE4F6D8FD75810702087841
:0E08780012080012081E12083C12085A80F2E4
:10080000C2A020A40612089275808F20A5061208A7
:0E081000997580EE20A6061208A07580B6220B
:10081E00C2A120A40612089275808F20A506120888
:0E082E00997580EE20A6061208A07580B622ED
:10083C00C2A220A40612089275808F20A506120869
:0E084C00997580EE20A6061208A07580B622CF
:10085A00C2A320A40612089275808F20A50612084A
:0E086A00997580EE20A6061208A07580B622B1
:07089200D290D291C2922224
:07089900D290C291D292221D
:0708A000D290C292C2912226
:00000001FF
