:030000000208AA49
:0C08AA00787FE4F6D8FD75810702089CF9
:0E089C0012080012082712084E12087580F28A
:10080000C2A020A40920A5061208B675808F20A5D5
:100810000920A6061208BD7580EE20A60920A406B0
:070820001208C47580B62226
:10082700C2A120A40920A5061208B675808F20A5AD
:100837000920A6061208BD7580EE20A60920A40689
:070847001208C47580B622FF
:10084E00C2A220A40920A5061208B675808F20A585
:10085E000920A6061208BD7580EE20A60920A40662
:07086E001208C47580B622D8
:10087500C2A320A40920A5061208B675808F20A55D
:100885000920A6061208BD7580EE20A60920A4063B
:070895001208C47580B622B1
:0708B600D290D291C2922200
:0708BD00D290C291D29222F9
:0708C400D290C292C2912202
:00000001FF
