:0300000002002CCF
:0100030032CA
:03000B000200A947
:0100130032BA
:01001B0032B2
:0100230032AA
:10002B0032C208758160D2AF12004E1203CA12039E
:10003B00C740082005F81204D501391203AB12038F
:10004B007D013912005E1204F11200811200991227
:10005B0000A222438901758A66758CFCD28CD2A9C9
:10006B0022438920758DFDD28E22759840C298C28D
:10007B0099D29CD2AC22D2A4D2A5D2A6D2A7753942
:10008B0000753721753A20C200C201C20622753CA9
:10009B00E8753D04D20422C203C208D20522C0E097
:1000AB00C0D0C083C082115E1200DB1202B81200F6
:1000BB00F13003083004101202FBC2043008083080
:1000CB00040512033DC204D082D083D0D0D0E032DD
:1000DB00200412D53C0FD53D09753D04753CE8D283
:1000EB000422753CFF22E539B40015C2A0D2A1D27F
:1000FB00A2D2A312023CA2A41201FC75390121FB6E
:10010B00B4010AA2A51201FC75390221FBB4020A43
:10011B00A2A61201FC75390321FBB4030D12024098
:10012B00A2A71201FC75390421FBB40415D2A0C29D
:10013B00A1D2A2D2A312023DA2A41201FC753905D1
:10014B0021FBB4050AA2A51201FC75390621FBB4EB
:10015B00060AA2A61201FC75390721FBB4070D1282
:10016B000240A2A71201FC75390821FBB40815D275
:10017B00A0D2A1C2A2D2A312023EA2A41201FC756C
:10018B00390921FBB4090AA2A51201FC75390A2110
:10019B00FBB40A0AA2A61201FC75390B21FBB40BA6
:1001AB000D120240A2A71201FC75390C21FBB40CF5
:1001BB0015D2A0D2A1D2A2C2A312023FA2A41201B5
:1001CB00FC75390D21FBB40D0AA2A51201FC753982
:1001DB000E21FBB40E0AA2A61201FC75390F21FBEE
:1001EB00B40F08120240A2A71201FC75390021FBC3
:1001FB002220002A9202E537B4210CA202403115CD
:10020B003785393B02023BD53726A202400A7537A8
:10021B0021D200D20602023B75372102023B400677
:10022B00753A2002023BD53A07D201C206753A2035
:10023B00222222222222FC60DAF266B6BEE0FEE621
:10024B00FFFFFFFFFFFFFFEE3E9C7A9E8EBC6E0C06
:10025B00700E1CAA2A3ACED60AB61E7C38B8626635
:10026B009200FF7535157534FFD534FDD535F72262
:10027B007535557534FFD534FDD535F722753607F1
:10028B007535FF7534FFD534FDD535F7D536F122ED
:10029B0075305C75315C75325C75335C51887530CB
:1002AB005B75315B75325B75335B518822300602AF
:1002BB00B2952230050EC20575303075313075326E
:1002CB0030753330D203C2081203F522C203C208C1
:1002DB0012042D22C203C2087530307531307532CD
:1002EB003075333012046522D208C20312049D22EA
:1002FB0030033E0530E530B43A0050012275303002
:10030B000531E531B43A005001227531300532E543
:10031B0032B43A005001227532300533E533B43A2A
:10032B0010500122753030753130753230753330E5
:10033B00222230083C1530E530B4300040012275E4
:10034B0030391531E531B4300040012275313915A2
:10035B0032E532B430004001227532391533E533C2
:10036B00B43000500C7530397531397532397533FD
:10037B003922E53BB4410551BE02039FB4420551FE
:10038B00D702039FB4430551DF02039FB4440551C9
:10039B00F302039F1203A3223001FDC200C201220C
:1003AB003000FDE53B9003B793F53B223031323300
:1003BB00343536373839414243444546A200221280
:1003CB0005429003D41205BA222057454C434F4D9A
:1003DB004520544F20544845202053544F5020570C
:1003EB00415443482050524F470312054290041387
:1003FB001205BAE53312056AE53212056AE53112C8
:10040B00056AE53012056A222020202053544F50F4
:10041B0057415443482020202053544152544544C3
:10042B00200312054290044B1205BAE53312056AFC
:10043B00E53212056AE53112056AE53012056A22CA
:10044B002020202053544F50574154434820202004
:10045B002053544F505045442003120542900483BF
:10046B001205BAE53312056AE53212056AE5311257
:10047B00056AE53012056A222020202053544F5084
:10048B00574154434820202052455345545445442A
:10049B0020031205429004BB1205BAE53312056A1C
:1004AB00E53212056AE53112056AE53012056A225A
:1004BB002053544F50574154434820202020202094
:1004CB0020444F574E5F4320200374C9120551E55A
:1004DB003312056AE53212056AE53112056AE53019
:1004EB0012056A518822516E516E516E743012058D
:1004FB0037516E7430120537516E74301205375107
:10050B006E742012053774281205517408120551A8
:10051B00740C1205517405120551740E12055174A9
:10052B001C1205517401120551C280221205A9C279
:10053B0081C28212059E22C0E01205887401120549
:10054B0051516ED0E022C0E01205881205A9C2817C
:10055B00C28212059EC41205A912059ED0E022C0CC
:10056B00E01205881205A9D281C28212059EC4121F
:10057B0005A912059ED0E0222430B16A22D287C28F
:10058B0081D28200D28300A28700C2830012059E13
:10059B0040EB2200D28300000000C2830022A2E4C1
:1005AB009284A2E59285A2E69286A2E792872275B3
:1005BB003E00C0E0740093B403030205D8B16AA3F4
:1005CB00053EE53EB410ED74A8B151A1BFD0E022B9
:00000001FF
