:100800001208287D85E4FF12084B7D547F011208F1
:100810004B7D497F0112084B7D457F0112084B7DBE
:08082000537F0112084B80FE1A
:100828007F0F7E0012086B7D38E4FF12084B7D0FA6
:10083800E4FF12084B7D06E4FF12084B7D01E4FF3C
:0308480002084B58
:10084B00900000EFF0A3EDF07F0F7E0012086B908D
:10085B000000E024FF92B5C2B6A3E0F59002088B2E
:0C088B00D2B77F017E0012086BC2B722BA
:10086B00E4FDFCC3ED9FEC9E5015E4FBFA0BBB00C3
:0F087B00010AEB64784A70F50DBD00010C80E4B2
:01088A00224B
:030000000208975C
:0C089700787FE4F6D8FD758107020800A8
:00000001FF
