:1000000012000D12008C9000F81200D7221200CAC4
:100010001200CA1200CA74301200681200CA74308A
:100020001200681200CA74301200681200CA7420EC
:10003000120068742812004F741812004F740E12C8
:10004000004F740712004F740112004FC28022C08B
:10005000E01200981200B9C281C2821200AEC4122E
:1000600000B91200AED0E0221200B9C281C28212E1
:1000700000AE22C0E01200981200B9D281C28212F2
:1000800000AEC41200B91200AED0E022C0E01200EF
:10009000987401114FD0E022D287C281D28200D25F
:1000A0008300A28700C283001200AE40EB2200D280
:1000B0008300000000C2830022A2E49284A2E592A1
:1000C00085A2E69286A2E79287227531157530FFE8
:1000D000D530FDD531F722753200C0E0740093B4FD
:1000E00003030200F51173A30532E532B410ED7479
:1000F000A8114F01DCD0E0222050524F4C49464914
:1001000043202020202020202A2A2A2A2A2A2A2A7C
:090110002A2A2A2A2A2A2A2A0393
:00000001FF
