:100000001200371200C09000161200FC748012001B
:10001000831201260106202020202050524F4C49F7
:100020004649432020202A2A2A2A2A2A2A2A2A2AFA
:100030002A2A2A2A2A2A0312011A12011A12011A3A
:1000400074301200B512011A74301200B512011A80
:1000500074301200B512011A74201200B5742812FF
:1000600000837408120083740C120083740512005C
:1000700083740E12008374181200837401120083BB
:10008000C28022C0E01200E81200CCC281C28212FB
:1000900000DDC41200CC1200DDD0E022C0E012006E
:1000A000E81200CCD281C2821200DDC41200CC1250
:1000B00000DDD0E0221200CCC281C2821200DD221B
:1000C000C0E01200E874011183D0E022A2E492841F
:1000D000A2E59285A2E69286A2E792872200D283C9
:1000E00000000000C2830022D287C281D28200D2E7
:1000F0008300A287C2830011DD40ED22753000C06D
:10010000E0740093B40303020123119CA30530E5BE
:1001100030B410ED74A8118321017A157BFFDBFE4A
:10012000DAFA22D0E0227533077532FF7531FFD538
:0901300031FDD532F7D533F1227F
:00000001FF
