:03000000020800F3
:0C080000787FE4F6D8FD758123020847DC
:10091600141000FC006000DA00F2006600B600BEAB
:0609260000E000FE00E607
:10088C00C2A0D2A3D2A2D2A1E5091208CDC2A1D294
:10089C00A3D2A2D2A0E50B1208CDC2A2D2A3D2A1A0
:1008AC00D2A0E50D1208CDC2A3D2A2D2A1D2A0E54E
:1008BC000F25E02410F808E6F5807F017E00020881
:0108CC00DA51
:0D08CD0025E02410F808E6F5807F017E008C
:1008DA00E4FDFCC3ED9FEC9E5015E4FBFA0BBB0054
:0F08EA00010AEB64784A70F50DBD00010C80E443
:0108F90022DC
:1008FA00750800750903750A00750B02750C0075F9
:0C090A000D01E4F50EF50F12088C80FBC7
:10080C000208FAE493A3F8E493A34003F68001F200
:10081C0008DFF48029E493A3F85407240CC8C333ED
:10082C00C4540F4420C8834004F456800146F6DFBC
:10083C00E4800B0102040810204080900916E47E2D
:10084C00019360BCA3FF543F30E509541FFEE493B1
:10085C00A360010ECF54C025E060A840B8E493A378
:10086C00FAE493A3F8E493A3C8C582C8CAC583CAA3
:10087C00F0A3C8C582C8CAC583CADFE9DEE780BE5B
:01092C0000CA
:00000001FF
