:030000000208B340
:0C08B300787FE4F6D8FD75813A0208FA5F
:10098000C101C102C103012700012300013A000196
:1009900026001228FC60DAF266B6BEE0FEE6EE3E05
:0609A0009C7A9E8E00FF10
:1009E900D2A7D2A6D2A5D2A4E4F53A7526217523B9
:0809F90020C201C202C200226B
:10080000E53AB4100040030208B2900811F8282815
:100810007302084102084F0208750208510208538A
:100820000208610208750208630208650208730283
:100830000875020877020884020898020875020801
:10084000A6C2A0D2A3D2A2D2A17428252180418021
:10085000478024D2A3D2A2D2A0C2A174282522808C
:100860002F80358012D2A3D2A1D2A0C2A274282593
:1008700024801D80238025A2A79204120A01053A34
:10088000E4F58022D2A2D2A1D2A0C2A37428252549
:10089000F8E6F580A2A48006A2A58002A2A6920492
:1008A000120A01053A22A2A79204120A01E4F53ABB
:0308B000F58022AE
:100A0100300103020A56E52664216003020A2F2001
:080A110004051526853A272291
:0E0A2F00D5260A200404D200D2017526212209
:0A0A5600300403020A4B752320222E
:0B0A4B00D52307D202C2007523202231
:080A60003002FDC201C20222B6
:1009C900E4FDFCC3ED9FEC9E5015E4FBFA0BBB0064
:0F09D900010AEB64784A70F50DBD00010C80E453
:0109E80022EC
:060A6800300002B29522ED
:100A19001209E9120A3DD2AF1209A73001FD852753
:060A290021120A6080F5B5
:0E0A3D00438901758CFC758A66D28CD2A92281
:03000B0002093FA8
:10093F00C0E0C0F0C083C082C0D075D000C000C07E
:10094F0001C002C003C004C005C006C007120A3DA3
:10095F00120A68120800D007D006D005D004D003C1
:10096F00D002D001D000D0D0D082D083D0F0D0E050
:01097F003245
:1009A7007521117522117524117525117FE87E03B4
:1009B7001209C975211075221075241075251002AA
:0209C70009C95C
:1008BF00020A19E493A3F8E493A34003F68001F22C
:1008CF0008DFF48029E493A3F85407240CC8C3333A
:1008DF00C4540F4420C8834004F456800146F6DF09
:1008EF00E4800B0102040810204080900980E47E10
:1008FF00019360BCA3FF543F30E509541FFEE493FE
:10090F00A360010ECF54C025E060A840B8E493A3C4
:10091F00FAE493A3F8E493A3C8C582C8CAC583CAEF
:10092F00F0A3C8C582C8CAC583CADFE9DEE780BEA7
:0109A6000050
:00000001FF
